:020000040800F2
:10000000C0040020A101000873140008B912000800
:1000100071140008A504000849160008000000003B
:10002000000000000000000000000000651500084E
:10003000A70400080000000075140008AD150008B2
:10004000BB010008BB010008BB010008BB010008A0
:10005000BB010008BB010008BB010008A90400089F
:10006000BB010008AF040008BB010008BB01000889
:10007000BB010008BB010008BB010008BB01000870
:10008000BB010008BB010008BB010008BB01000860
:10009000BB010008BB010008BB010008BB01000850
:1000A000BB010008BB010008BB010008BB01000840
:1000B000BB010008BB010008BB010008BB01000830
:1000C000BB010008BB010008BB010008BB01000820
:1000D000BB010008BB010008BB010008BB01000810
:1000E000BB010008BB010008BB010008BB01000800
:1000F000BB010008BB010008BB010008BB010008F0
:10010000BB010008BB010008BB010008BB010008DF
:10011000BB010008BB010008BB010008BB010008CF
:10012000BB010008BB010008BB010008BB010008BF
:10013000BB010008BB010008BB010008BB010008AF
:10014000BB010008BB010008BB010008BB0100089F
:10015000BB010008BB010008BB010008BB0100088F
:10016000BB010008BB010008BB010008BB0100087F
:10017000BB010008BB010008BB0100080000000033
:10018000BB010008BB010008DFF810D000F078F9CF
:1001900000480047151C0008AFF30080C004002091
:1001A0000648804706480047FEE7FEE7FEE7FEE711
:1001B000FEE7FEE7FEE7FEE7FEE7FEE72D16000896
:1001C000890100082DE9F05F0546002092469B4614
:1001D00088460646814640241BE02846414647465D
:1001E000224600F0E0F853465A46C01A914110D317
:1001F00011461846224600F0C7F82D1A67EB010891
:100200004F4622460120002100F0BEF817EB0009FE
:100210004E41201EA4F10104DFDC484631462A4647
:100220004346BDE8F09FD2B201E000F8012B491E21
:10023000FBD270470022F6E710B513460A46044683
:100240001946FFF7F0FF204610BD2DE9F04D81EA79
:10025000030404F0004B21F0004514464FF0000A5F
:1002600023F0004150EA050220D054EA01021DD0DB
:10027000C5F30A570246C5F31303C1F31300C1F3D4
:100280000A5640F4801543F48013A7EB0608101BB0
:10029000D64608F2FD3873EB050002D308F10108D9
:1002A00001E092185B41B8F1000F03DA002001462B
:1002B000BDE8F08D00204FF48011064684460EE024
:1002C000171B73EB050705D3121B63EB05030643EE
:1002D0004CEA010C49084FEA300092185B4150EAA1
:1002E0000107EDD152EA030012D082EA040083EA4A
:1002F0000501084305D0101BAB4106D201220023A3
:1003000006E000224FF0004302E06FF001025310BC
:100310001AEB06004CEB085110EB0A0041EB0B0105
:10032000BDE8F04D00F04FB80EB5C10F80EAE070A7
:100330000844CA07002140F233438DE80E000A4604
:100340000B4600F04FF803B000BD70B5C1F30A5280
:1003500001F000450024C1F3130140F2FF3341F4E2
:1003600080119A4201DA002070BD40F233439A4274
:10037000A2F2334203DC524200F015F800E0904054
:100380002C43F1D0404270BD202A04DB203A00FA11
:1003900002F1002070479140C2F1200320FA03F3DC
:1003A000194390407047202A04DB203A21FA02F0DA
:1003B0000021704721FA02F3D040C2F1200291409F
:1003C00008431946704710B5141E73F1000408DA8B
:1003D000401C41F1000192185B411A4301D120F009
:1003E000010010BD2DE9F04D92469B4611B1B1FAC6
:1003F00081F202E0B0FA80F220329046FFF7C4FFAB
:1004000004460F4640EA0A0041EA0B0153465A46A9
:10041000084313D0114653EA010019D0C8F1400235
:100420005046FFF7C0FF05460E4650465946424625
:10043000FFF7AAFF084305D0012004E02046394613
:10044000BDE8F08D0020054346EAE0762C433743B3
:100450000A986305E40AA0EB08000022FD0A44EABA
:1004600047540A3002D500200146E9E7010510197A
:100470006941DDE9084500196941BDE8F04DA2E791
:10048000064C074D06E0E06840F0010394E80700E1
:1004900098471034AC42F6D3FFF77AFE541E00089A
:1004A000741E0008FEE77047022000F0ADB9082076
:1004B00000F0AAB9002229B101291AD002291BD0C3
:1004C0004FF440720E490B6823F440730B600B68C5
:1004D00013430B600A6822F0F8020A600A680223DC
:1004E00003EBC00002430A60086840F480300860F3
:1004F00070474FF48072E5E74FF40072E2E70000C6
:10050000103C0240064A136823F4407313601368DA
:100510001360136843F0010313600170704700001B
:10052000103C0240094910B50C6824F440740C607A
:100530000C6844F440740C600C6844F001040C60D6
:100540000260BFF36F8F436010BD0000103C02409B
:10055000074A136823F440731360136843F48073ED
:100560001360136843F001031360018070470000BB
:10057000103C0240074A136823F440731360136869
:1005800043F400731360136843F0010313600160C8
:1005900070470000103C024017490868C20617481F
:1005A00005D5C26942F01002C26110220A600A68D1
:1005B000920605D5C26942F00802C26120220A6093
:1005C0000A68520605D5C26942F00402C26140229F
:1005D0000A600A68120605D5C26942F00202C261C9
:1005E00080220A600A68920705D5C26942F020029B
:1005F000C2610220086070470C3C0240A00000204D
:1006000070B5114904460020C86100F0EFF90646B4
:100610000E4D09E0601C07D024B100F0E7F9801B03
:10062000A04201D9032070BD2868C003F2D4286815
:10063000C00701D001202860286810F0F200F2D035
:10064000FFF7AAFF012070BDA00000200C3C024073
:100650000348016841F0004101600020704700003C
:10066000103C02402DE9F0471B4E05461446307EF3
:100670001F468946012808D0012030764CF25038B8
:100680004046FFF7BDFF18B114E00220BDE8F08737
:100690009DB1012D16D0022D19D022463B46484669
:1006A000FFF740FF4046FFF7ABFF0C490A6822F016
:1006B00001020A6000213176E8E7E1B24846FFF71F
:1006C00021FFEFE7A1B24846FFF742FFEAE72146E4
:1006D0004846FFF74FFFE5E7A0000020103C02402E
:1006E000074900200A68002A09DA054A054B0C3A36
:1006F0001360054B13600968002900DA0120704778
:10070000103C024023016745AB89EFCD2DE9F04154
:10071000374A384D0027384C384E022802D0082876
:100720002FD05AE04FF400719046104600F054F973
:1007300020714FF48071404600F04EF960712179CC
:1007400031B9E7712A68521C2A60A279521CA27141
:1007500010B1012808D040E0A7712868401E286029
:10076000E079401CE07138E0012936D1A07910B160
:100770002868401C2860E07910B32868401E286073
:100780002BE080219046104600F026F96070402151
:10079000404600F021F9207030B9A7703168491C3B
:1007A0003160E178491CE170617811B1012908D00C
:1007B00013E0E7703068401E3060A078401CA070E5
:1007C0000BE0012809D1E07810B13068401C30609E
:1007D000A07810B13068401E30603168286801F0A0
:1007E000CDF80748076007480760BDE8F0810000C2
:1007F00000080240180000202C00002014000020F7
:100800000800002010000020044910B50A680242C8
:1008100002D00860FFF77AFF10BD0000143C0140D1
:100820002DE9F84F00224FF0010803254FF00F0E7D
:100830000B6808FA02F42340A3426ED14E68012EE1
:1008400005D0022E03D0112E01D0122E12D18668AF
:100850004FEA420C05FA0CF7BE43CF6807FA0CF7D3
:10086000374387604668A6430C79C4F3001494406C
:1008700034434460C668570005FA07FC8C6826EAD2
:100880000C06BC403443C4604C68022C01D0122CCE
:1008900013D1D40800EB8404A346D4F82090540765
:1008A0004FEAD46A0EFA0AF629EA06090E6906FA30
:1008B0000AF646EA0906CBF8206006680C7926EAB3
:1008C0000C0604F00304BC40344304604C68E400AC
:1008D00065D5364C266846F480462660246822F0AA
:1008E000030604F480440094314C3444A446D4F804
:1008F00008489607370F0EFA07F6B4432D4EB0425C
:1009000001D1002624E02C4EB04201D101261FE087
:100910002A4EB04202D102261AE040E0284EB042F0
:1009200001D1032614E0274EB04201D104260FE086
:10093000254EB04201D105260AE0244EB04201D135
:10094000062605E0224EB04201D1072600E0082627
:10095000BE402643CCF808681E4E34684F689C435E
:10096000FF0300D51C4334601A4C241D26684F68D1
:100970009E43BF0300D51E432660164E08363468DA
:100980004F689C43FF0200D51C433460114E0C3667
:1009900034684F689C43BF0200D51C433460521C2E
:1009A000102AFFF445AFBDE8F88F0000443802403C
:1009B00000300140000002400004024000080240F4
:1009C000000C0240001002400014024000180240D7
:1009D000001C0240003C01400069084000D001209A
:1009E00070470AB1816170470904FBE701488068DC
:1009F00070470000380000200248816802781144E6
:100A000081607047380000200B4810B5016841F440
:100A100000710160016841F480610160016841F486
:100A200080710160032000F081F8002000F006F8DA
:100A300000F024F8002010BD003C024070B50D4DC0
:100A400004464FF47A712878B1FBF0F00A4909683E
:100A5000B1FBF0F000F01CFC48B9102C07D20022CA
:100A60002146501E00F042F800206C6070BD01204D
:100A700070BD000038000020440000200B4882B008
:100A8000016841F480410160006800F480400090FA
:100A90000648001F016841F080510160006800F0C5
:100AA00080500090072002B000F040B84438024067
:100AB00000280DDB00F01F02012191404009800059
:100AC00000F1E020C0F88011BFF34F8FBFF36F8FAC
:100AD0007047002809DB00F01F0201219140400906
:100AE000800000F1E020C0F800117047F0B40E4B18
:100AF0001B680C46C3F30223C3F10705042D00D97C
:100B00000425191D072901D2002300E0DB1E012660
:100B100006FA05F1491E214099409E40761E164076
:100B20003143F0BC00F091BD0CED00E0064900F04F
:100B3000070208684FF6FF03184040EA0220034A04
:100B400010430860704700000CED00E00000FA055B
:100B50002DE9F0470E46050065D0DFF81481D8F87E
:100B60000000F7B200F00F00B04207D288F8007022
:100B7000D8F8000000F00F00B04254D128683D4C76
:100B8000810712D5400703D5206840F4E05020606B
:100B90002878000703D5206840F460402060206872
:100BA000A96820F0F000084320602878C0072DD005
:100BB000304968680839012812D0022813D0032868
:100BC00011D00968890700292DDA216821F0030175
:100BD00001432160FFF70AFF814641F2883A0EE0A7
:100BE00009688903EFE709688901ECE7FFF7FEFE72
:100BF000A0EB0901514502D90320BDE8F087206828
:100C0000696800F00C00B0EB810FEFD1D8F800104C
:100C1000404601F00F01B14207D90770006800F0AB
:100C20000F00B04201D00120E7E72878400705D542
:100C30002068E96820F4E050084320602878000725
:100C400006D52068296920F4604040EAC100206090
:100C500000F01EF82168084AC1F30311515CC84036
:100C60000649086006480068FFF7E8FE0020C4E770
:100C7000003C024008380240441E000844000020A6
:100C80003C00002001490120C86470470000474231
:100C9000154810B5006810F00C02144813D041102C
:100CA000042A0FD0082A0ED10F4C241F2268236873
:100CB00002F03F025B0207D52068C0F38810A0FB5A
:100CC000010106E0084610BD2168C1F38811A1FBAF
:100CD00000010023FFF776FA2168C1F30141491CA6
:100CE0004900B0FBF1F010BD083802400024F400C8
:100CF0002DE9F84F04006ED02078DFF83C93C00750
:100D0000A9F104054AD009F104000168C1F3810189
:100D1000012908D00068C0F3810002280AD1D9F85F
:100D20000000400206D52868800337D56068002897
:100D3000E1D033E06068B0F5803F10D0B0F5A02F6F
:100D4000286810D020F480302860286820F48020A3
:100D500028606068A8B1FFF749FE06460DE02868E4
:100D600040F48030F4E740F480202860F7E700BFCB
:100D7000FFF73CFE801B642873D828688003F7D5F2
:100D80000CE0FFF733FE064605E000BFFFF72EFE3E
:100D9000801B6428F0D828688003F7D42078DFF817
:100DA0009C8280074FF0000A3ED5A348001D0168D1
:100DB00011F00C0F08D00068C0F3810002280BD19D
:100DC000D9F80000400207D42868800716D5E068EB
:100DD000012800D112E02BE1E068B8B10120C8F889
:100DE0000000FFF703FE064605E000BFFFF7FEFD2B
:100DF000801B0228C0D828688007F7D52868216999
:100E000020F0F80040EAC10028600DE0C8F800A01A
:100E1000FFF7ECFD064604E0FFF7E8FD801B022823
:100E20001FD828688007F7D42078000722D5824E83
:100E300083486169703671B101210160FFF7D6FD09
:100E4000074604E0FFF7D2FDC01B022809D830682E
:100E50008007F7D50EE0C0F800A0FFF7C7FD0746F2
:100E600005E082E0FFF7C2FDC01B02287DD8306894
:100E70008007F7D42078400768D5DFF8BCB1002799
:100E80000BF13C0BDBF80000C0000BD4DBF80010CA
:100E900041F08051CBF80010DBF80000012700F092
:100EA00080500090674E3068C00510D4306840F420
:100EB00080703060FFF79AFD009005E0FFF796FD27
:100EC0000099401A022850D83068C005F6D55A4E0D
:100ED000A0686C3601280FD00528306810D020F0AB
:100EE00001003060306820F004003060A068B8B1C4
:100EF000FFF77CFD00900FE0306840F00100F4E760
:100F000040F004003060F7E7FFF770FD0099411AE8
:100F100041F28830814266D830688007F4D50EE00F
:100F2000FFF764FD009007E0FFF760FD0099411AAC
:100F300041F28830814256D830688007F4D42FB10E
:100F4000DBF8001021F08051CBF80010A069C8B385
:100F50003949091D0968C1F3810102294AD00228D3
:100F6000504607D0C8F8600000E03CE0FFF73EFDC7
:100F700004463BE04746C8F86000FFF737FD0646E9
:100F800005E000BFFFF732FD801B02282BD8286840
:100F90008001F7D4D4E907010843A16A2A4A490825
:100FA00002EB0141626A41EA8211084394F82C1075
:100FB00040EA0161C9F8001001203866FFF716FD0C
:100FC000044606E036E000BFFFF710FD001B0228D4
:100FD00009D828688001F7D52CE000BFFFF706FD8F
:100FE000001B022802D90320BDE8F88F2868800181
:100FF000F4D41FE00128F7D0D9F80000E26900F42A
:101000008001914214D1226A00F03F0191420FD138
:1010100047F6C071626A0140914209D1A26A00F4A8
:101020004031914204D1E16A00F07060884201D001
:101030000120D9E70020D7E70438024000004742EA
:10104000800E4742007000400000FFFF70B50400B2
:1010500005D00025A56294F8510010B106E00120EA
:1010600070BD84F85050204600F030F8022084F81B
:1010700051002068016821F040010160D4E90101BC
:101080000843D4E903121143084361690843218BE3
:1010900001F400710843E1690843216A0843A16A29
:1010A000084321680860A069042101EA1040616AD0
:1010B0000843216848602068C16921F40061C1616A
:1010C0006565012084F85100002070BD10B586B020
:1010D000044614216846FFF7ADF81349206888429A
:1010E00020D112480021026842F480520260006858
:1010F00000F4805005900D481438026842F0010257
:101100000260006800F001000590A020009002201D
:10111000CDE90101032003900520049069460448AD
:10112000FFF77EFB06B010BD00300140443802409E
:10113000000002402DE9F84F044690F850000027C7
:101140001D461646894601280DD04FF0010B84F844
:1011500050B0FFF74BFC804694F85100BA46012886
:1011600004D002278EE00220BDE8F88FB9F1000F0D
:101170007DD0002E7BD0032084F85100C4F854A009
:10118000C4F83090A686E686C4F838A0A4F83CA03F
:10119000A4F83EA0C4F844A0C4F840A0A068B0F5EC
:1011A000004F04D12068016841F48041016020684B
:1011B0000168490603D4016841F040010160E0681C
:1011C000B0F5006F606803D030B3012E24D040E04A
:1011D00008B1012E1CD1206B21680088C86006E090
:1011E00020688168890709D5216B0988C160206B57
:1011F000801C2063E08E401EE08609E0FFF7F6FBCE
:10120000A0EB0800A84202D3681C01D031E07DB3F6
:10121000E08E0028E4D11FE0206B2168007808737D
:1012200006E020688168890709D5216B0978017378
:10123000206B401C2063E08E401EE08609E0FFF733
:10124000D5FBA0EB0800A84202D3681C01D010E037
:1012500075B1E08E0028E4D142462946204600F0D0
:101260000BF908B120206065A06820B107E008E014
:10127000FFE7032706E02068C16880680090606D82
:1012800000B1012784F851B084F850A038466BE7CC
:1012900010B5401EB0F1807F01D3012010BD4FF08A
:1012A000E02460610F21601700F0CFF90020A061F9
:1012B00007202061002010BD704700002DE9F04399
:1012C00087B014216846FEF7B5FF52480025016833
:1012D00041F010010160016801F010010591016801
:1012E00041F004010160016801F004010591016809
:1012F00041F001010160016801F0010105910168FF
:1013000041F002010160016801F0020105910168EC
:1013100041F0080101600068002200F0080005901B
:1013200011460720FFF7E2FB0720FFF7D2FB002260
:1013300011460920FFF7DAFB0920FFF7CAFB364FF9
:10134000012208213846FFF74CFB08200124022621
:101350008DE8710069463846FFF762FADFF8BC8015
:101360004FF4707739464046FFF736FB0097CDE9DA
:10137000015469464046FFF753FADFF8A490002273
:1013800041214846FFF72DFB412003958DE8510090
:1013900069464846FFF744FADFF8888000220121B9
:1013A0004046FFF71EFB03950094CDE901466946D0
:1013B0004046FFF735FA40214846FFF70DFB042071
:1013C000CDE90005694602944846FFF729FA0A204C
:1013D00000901548CDE9010469464846FFF720FA18
:1013E0007F00002239464046FFF7FBFA009703953D
:1013F000CDE9014669464046FFF712FA4FF44070C6
:10140000CDE90005694602944846FFF709FA07B09E
:10141000BDE8F0833038024000100240000802406E
:101420000000024000040240000021100F4810B5E7
:101430000D4901604FF48271416000214FF4006258
:10144000C0E902120222C0E904211202C0E9062109
:101450000162416281620A21C162FFF7F7FD002843
:1014600001D072B6FEE710BD0030014048000020F8
:10147000FEE7FEE77047000038B504461248134BFC
:101480000068B0FBF3F04FF47A7358430090606843
:10149000B0F5827F0DD10B460092002280212046BC
:1014A00000F016F870B1606D40F020006065032018
:1014B00038BD009830B1401E009020688068C0435D
:1014C0000006F6D5002038BD4400002000366E012D
:1014D0002DE9F0411D4617460E460446DDF81880FA
:1014E00008E0681C06D0FFF781FAA0EB0800A842CC
:1014F0000BD255B12068806836EA000030D0002059
:10150000B842EED10020BDE8F0812068416821F0AA
:10151000E00141606068B0F5827F0BD1A068B0F552
:10152000004F02D0B0F5806F04D12068016821F02F
:1015300040010160A06AB0F5005F09D12068016830
:1015400021F4005101602068016841F400510160FC
:10155000012084F85100002084F850000320D2E7D5
:101560000120CDE77047000070B50B4D28680028BA
:1015700011D10A4C0A492068401C20600968884241
:1015800009DB084801680848006800F025FC0020D5
:1015900020600120286070BD10000020080000209D
:1015A0000C0000201400002018000020FFF724BACF
:1015B00030B593B030216846FEF73CFE14210CA8EC
:1015C000FEF738FE17480024016841F080510160A1
:1015D000006800F0805011901348016841F4804188
:1015E00001600068012500F48040119028040694F1
:1015F000CDE900506846FFF77BFB08B172B6FEE705
:101600000F200C90CDE90D540F9400210CA81094DC
:10161000FFF79EFA08B172B6FEE7FFF733FB13B08F
:1016200030BD0000403802400070004005480168AD
:1016300041F47001016003494FF000608039086097
:101640007047000088ED00E0FEE70907090E00285A
:1016500004DB00F1E02080F80014704700F00F0078
:1016600000F1E02080F8141D704702E008C8121F46
:1016700008C1002AFAD170477047002001E001C17B
:10168000121F002AFBD170472DE9F0414FF480640E
:101690000D4DDFF838800E4E6FF0630704E0012235
:1016A00021462846FFF79DF980214046FFF794F92F
:1016B00010B93068B842F2DC21462846BDE8F04156
:1016C0000022FFF78EB9000000040240000802402B
:1016D000140000202DE9F0414FF400740D4DDFF8A7
:1016E00038800E4E4FF4ED7704E001222146284663
:1016F000FFF777F940214046FFF76EF910B93068DF
:10170000B842F2DB21462846BDE8F0410022FFF74F
:1017100068B90000000402400008024014000020E4
:101720002DE9F047914F002208213846FFF759F97B
:101730008F4C4FF001090F2684F800906670322319
:101740004A4621468B48FFF7F5FC0122082138461E
:10175000FFF747F900252146874A28464D60401C7F
:101760009042FCDB486000220821BA463846FFF769
:1017700038F925706670322301227D497D48FFF7D4
:10178000D9FC012208215046FFF72BF9002208213D
:101790005046FFF726F94FF0020884F800800A2629
:1017A00066703223012272497248FFF7C3FC01229E
:1017B00008215046FFF715F9002208215046FFF78F
:1017C00010F984F800900C2060704F4632230122FB
:1017D00067496848FFF7AEFC012208215046FFF731
:1017E00000F9002208215046FFF7FBF84FF00709E7
:1017F00084F800900B206070322301225C495D4820
:10180000FFF798FC012208215046FFF7EAF8002272
:1018100008215046FFF7E5F8FF202070092060708E
:101820003223012252495348FFF784FC0122082148
:101830005046FFF7D6F8002208215046FFF7D1F8AE
:10184000257067703223012249494A48FFF772FC2C
:10185000012208215046FFF7C4F800220821504613
:10186000FFF7BFF88027277084F801803223012218
:101870003F494048FFF75EFC012208215046FFF730
:10188000B0F8002208215046FFF7ABF8257003207E
:1018900060703223012236493648FFF74BFC0122A3
:1018A00008215046FFF79DF8002208215046FFF717
:1018B00098F8267004206070322301222C492D48AC
:1018C000FFF738FC012208215046FFF78AF8002272
:1018D00008215046FFF785F82670052060703223F6
:1018E000012223492348FFF725FC01220821504605
:1018F000FFF777F8002208215046FFF772F82570AD
:10190000062060703223012219491A48FFF712FCA1
:10191000012208215046FFF764F8002208215046B2
:10192000FFF75FF8277084F80190322301221049F5
:101930001048FFF7FFFB012208215046FFF751F83E
:10194000002208215046FFF74CF8257008206070EF
:101950003223012206490748FFF7ECFB5046BDE859
:10196000F04701220821FFF73CB8000000100240B8
:101970001C0000204800002040420F00F8B500295C
:1019800000DA4942002800DA404240F2E732914250
:1019900000DB1146904200DB10464FF47A7291FB57
:1019A000F2F302FB131190FBF2F302FB130608465D
:1019B000FEF7BAFC9FED6E1B53EC112BFEF745FCB6
:1019C000FEF7C3FC0A2590FBF5F105FB110190FB26
:1019D000F5F0694C694F0022217090FBF5F105FB91
:1019E0001101606090FBF5F06170A070082138462D
:1019F000FEF7F7FF20788DF8000001208DF8010038
:101A00000246322369465E48FFF794FB0122082113
:101A10003846FEF7E6FF002208213846FEF7E1FFD0
:101A20006078322340F080008DF8000002208DF8AD
:101A30000100012269465248FFF77CFB0122082180
:101A40003846FEF7CEFF002208213846FEF7C9FFD0
:101A5000A0788DF8000003208DF8010032230122C8
:101A600069464748FFF766FB012208213846FEF722
:101A7000B8FF002208213846FEF7B3FF8DF800506A
:101A800004208DF801003223012269463C48FFF70B
:101A900051FB012208213846FEF7A3FF96FBF5F023
:101AA00005FB1060207096FBF5F090FBF5F105FB4F
:101AB0001101606090FBF5F06170A07000220821B8
:101AC0003846FEF78EFF8DF8005005208DF8010096
:101AD0003223012269462A48FFF72CFB0122082104
:101AE0003846FEF77EFF002208213846FEF779FFD0
:101AF00020788DF8000006208DF8010032230122A5
:101B000069461F48FFF716FB012208213846FEF7F9
:101B100068FF002208213846FEF763FF6078322311
:101B200040F080008DF8000007208DF801000122B0
:101B300069461348FFF7FEFA012208213846FEF7EE
:101B400050FF002208213846FEF74BFFA0788DF8A1
:101B5000000008208DF80100322301226946084860
:101B6000FFF7E8FA012208213846FEF73AFFF8BDF0
:101B70007B14AE47E17AF03F2400002000100240C1
:101B8000480000202DE9F0410D4DDFF83880AC15FC
:101B90000D4E6FF0630704E0012221462846FEF750
:101BA00020FF21464046FEF717FF10B93068B842C3
:101BB000F2DC21462846BDE8F0410022FEF711BFC5
:101BC0000004024000080240180000202DE9F04106
:101BD0000D4CDFF8388066150D4D4FF42F7704E07B
:101BE000012280212046FEF7FCFE31464046FEF7EA
:101BF000F3FE10B92868B842F2DB2046BDE8F04198
:101C000000228021FEF7EDBE0004024000080240E1
:101C100018000020FEF7F8FEFFF7CAFCFFF74EFBA6
:101C2000FFF704FCFFF77CFD00F018F80A48D0E944
:101C30000010FFF7A3FE00BF00F07AF8FFF7C6FF21
:101C4000FFF7A0FFFFF746FDFFF71EFDFFF78CFC37
:101C500000F034F8F0E700001400002070B5072011
:101C6000FEF726FF0920FEF723FF1048104B11490D
:101C70000068114A4FF47F450088186009684FF6E4
:101C8000FF74A8420988116002DD6040C0431860FB
:101C9000A94202DD6140C84310600720FEF719FF2A
:101CA000BDE870400920FEF714BF000000000020CE
:101CB0001800002004000020140000202DE9F04747
:101CC0000025174E174C184F4FF48078DFF85C90C2
:101CD0001EE035602846216800F07EF821683068F3
:101CE000FFF74CFE41463846FEF776FE0028F0D05E
:101CF00008E025602946306800F06EF821683068F9
:101D0000FFF73CFE80213846FEF766FE0028F0D043
:101D100004214846FEF760FE0028E3D0BDE8F087C6
:101D200018000020140000200008024000000240BB
:101D300070B5274C4FF480712046FEF74DFE0646E5
:101D400061152046FEF748FE224DE6B1012E3DD139
:101D500068B101283AD1002201212846FEF741FE50
:101D6000002201212046FEF73CFE00221AE000225C
:101D700040212046FEF735FE002201212046FEF7D5
:101D800030FE01221FE0012812D000281ED10022BF
:101D900001212046FEF725FE002201212846FEF7FC
:101DA00020FE012240212046BDE87040FEF719BE0A
:101DB000002240212046FEF714FE01221146204653
:101DC000FEF70FFE002201212846EDE770BD00005E
:101DD000000002400004024070B505460C46072092
:101DE000FEF766FE0920FEF763FEFEF779FC114957
:101DF000B3200860104802210078FEF75BFB0F4813
:101E00002A46EB1701680120FEF72CFC0C482246FD
:101E1000E31701680120FEF725FC0028FDD1FEF73D
:101E200017FC0720FEF755FEBDE870400920FEF7BD
:101E300050BE00000C3C0240340000200000002096
:101E40000400002000000000000000000102030464
:101E500006070809741E0008000000204800000062
:101E60006A160008BC1E0008480000207804000024
:101E70007A16000800000E0802000E08000000009C
:101E800050C300000000000000000000000000003F
:101E90000000000000000000000000000000000042
:101EA00000000000000000000B0000000100000026
:0C1EB00010000000000000000024F400FE
:040000050800018965
:00000001FF
